{
  "contractName": "FLibra",
  "abi": [
    {
      "constant": true,
      "inputs": [
        {
          "name": "",
          "type": "uint256"
        }
      ],
      "name": "reviewToPurchaser",
      "outputs": [
        {
          "name": "itemId",
          "type": "uint256"
        },
        {
          "name": "star",
          "type": "uint256"
        },
        {
          "name": "text",
          "type": "string"
        }
      ],
      "payable": false,
      "stateMutability": "view",
      "type": "function",
      "signature": "0x342803a6"
    },
    {
      "constant": true,
      "inputs": [
        {
          "name": "",
          "type": "uint256"
        }
      ],
      "name": "onSaleItems",
      "outputs": [
        {
          "name": "",
          "type": "uint256"
        }
      ],
      "payable": false,
      "stateMutability": "view",
      "type": "function",
      "signature": "0x4495f9aa"
    },
    {
      "constant": true,
      "inputs": [
        {
          "name": "",
          "type": "string"
        }
      ],
      "name": "UserInfo",
      "outputs": [
        {
          "name": "userAddress",
          "type": "string"
        },
        {
          "name": "userName",
          "type": "string"
        },
        {
          "name": "userIcon",
          "type": "string"
        }
      ],
      "payable": false,
      "stateMutability": "view",
      "type": "function",
      "signature": "0x58c55939"
    },
    {
      "constant": true,
      "inputs": [
        {
          "name": "",
          "type": "uint256"
        }
      ],
      "name": "reviewToSeller",
      "outputs": [
        {
          "name": "itemId",
          "type": "uint256"
        },
        {
          "name": "star",
          "type": "uint256"
        },
        {
          "name": "text",
          "type": "string"
        }
      ],
      "payable": false,
      "stateMutability": "view",
      "type": "function",
      "signature": "0xfa0626a3"
    },
    {
      "constant": true,
      "inputs": [
        {
          "name": "",
          "type": "uint256"
        }
      ],
      "name": "allItems",
      "outputs": [
        {
          "name": "id",
          "type": "uint256"
        },
        {
          "name": "itemDetailContract",
          "type": "address"
        },
        {
          "name": "seller",
          "type": "string"
        },
        {
          "name": "purchaser",
          "type": "string"
        },
        {
          "name": "selling",
          "type": "bool"
        },
        {
          "name": "delivered",
          "type": "bool"
        }
      ],
      "payable": false,
      "stateMutability": "view",
      "type": "function",
      "signature": "0xff68fa6e"
    },
    {
      "inputs": [],
      "payable": false,
      "stateMutability": "nonpayable",
      "type": "constructor",
      "signature": "constructor"
    },
    {
      "anonymous": false,
      "inputs": [
        {
          "indexed": false,
          "name": "id",
          "type": "uint256"
        },
        {
          "indexed": false,
          "name": "itemDetailContract",
          "type": "address"
        },
        {
          "indexed": false,
          "name": "seller",
          "type": "string"
        },
        {
          "indexed": false,
          "name": "purchaser",
          "type": "string"
        },
        {
          "indexed": false,
          "name": "selling",
          "type": "bool"
        },
        {
          "indexed": false,
          "name": "delivered",
          "type": "bool"
        }
      ],
      "name": "PostItem",
      "type": "event",
      "signature": "0xfbe5b2f4c9ad9a571b53cabde1c0829fd86560826b80d1005a787d275c2155ab"
    },
    {
      "anonymous": false,
      "inputs": [
        {
          "indexed": false,
          "name": "id",
          "type": "uint256"
        },
        {
          "indexed": false,
          "name": "purchaser",
          "type": "string"
        }
      ],
      "name": "ItemPurchased",
      "type": "event",
      "signature": "0xfc4a8daf3444e24c99bf28564cf722ae54240100d7e04b2897640d1a1cd9fac0"
    },
    {
      "anonymous": false,
      "inputs": [
        {
          "indexed": false,
          "name": "id",
          "type": "uint256"
        },
        {
          "indexed": false,
          "name": "delivered",
          "type": "bool"
        }
      ],
      "name": "ItemDelivered",
      "type": "event",
      "signature": "0x4fdee96e263fefac031214d878e7f02e364ccb1ac73f0ffad453ed06fa303bb6"
    },
    {
      "anonymous": false,
      "inputs": [
        {
          "indexed": false,
          "name": "userAddress",
          "type": "string"
        },
        {
          "indexed": false,
          "name": "userName",
          "type": "string"
        },
        {
          "indexed": false,
          "name": "userIcon",
          "type": "string"
        }
      ],
      "name": "UserInfoCreated",
      "type": "event",
      "signature": "0x488cbdd85eb9b8295c7f0cbcdb3bc9c06de90f919b4e81319e586499927c7670"
    },
    {
      "anonymous": false,
      "inputs": [
        {
          "indexed": false,
          "name": "itemId",
          "type": "uint256"
        },
        {
          "indexed": false,
          "name": "star",
          "type": "uint256"
        },
        {
          "indexed": false,
          "name": "text",
          "type": "string"
        }
      ],
      "name": "WriteReviewToSeller",
      "type": "event",
      "signature": "0x2da3ea64410ead21f3ff98fbcddd5a3c9e297be46413dfbda5f69ca8c4afa64e"
    },
    {
      "anonymous": false,
      "inputs": [
        {
          "indexed": false,
          "name": "itemId",
          "type": "uint256"
        },
        {
          "indexed": false,
          "name": "star",
          "type": "uint256"
        },
        {
          "indexed": false,
          "name": "text",
          "type": "string"
        }
      ],
      "name": "WriteReviewToPurchaser",
      "type": "event",
      "signature": "0xc0c0cf8f27a90e3b9862a6149eb84b21e1bbf195b7087b14e20dd272e7463d6f"
    },
    {
      "constant": false,
      "inputs": [
        {
          "name": "_userName",
          "type": "string"
        },
        {
          "name": "_userIcon",
          "type": "string"
        },
        {
          "name": "_userLibraAddress",
          "type": "string"
        }
      ],
      "name": "setUserInfo",
      "outputs": [],
      "payable": false,
      "stateMutability": "nonpayable",
      "type": "function",
      "signature": "0x8ffe411f"
    },
    {
      "constant": false,
      "inputs": [
        {
          "name": "_itemDetailContract",
          "type": "address"
        },
        {
          "name": "_sellerLibraAddress",
          "type": "string"
        }
      ],
      "name": "postItem",
      "outputs": [],
      "payable": false,
      "stateMutability": "nonpayable",
      "type": "function",
      "signature": "0x13430008"
    },
    {
      "constant": false,
      "inputs": [
        {
          "name": "_id",
          "type": "uint256"
        },
        {
          "name": "_purchaserLibraAddress",
          "type": "string"
        }
      ],
      "name": "purchaseItem",
      "outputs": [],
      "payable": false,
      "stateMutability": "nonpayable",
      "type": "function",
      "signature": "0x7858f126"
    },
    {
      "constant": false,
      "inputs": [
        {
          "name": "_id",
          "type": "uint256"
        },
        {
          "name": "_purchaserLibraAddress",
          "type": "string"
        }
      ],
      "name": "itemDelivered",
      "outputs": [],
      "payable": false,
      "stateMutability": "nonpayable",
      "type": "function",
      "signature": "0x2a6e5f63"
    },
    {
      "constant": false,
      "inputs": [
        {
          "name": "_id",
          "type": "uint256"
        },
        {
          "name": "_star",
          "type": "uint256"
        },
        {
          "name": "_text",
          "type": "string"
        },
        {
          "name": "_purchaserLibraAddress",
          "type": "string"
        }
      ],
      "name": "writeReviewToSeller",
      "outputs": [],
      "payable": false,
      "stateMutability": "nonpayable",
      "type": "function",
      "signature": "0x27b9661e"
    },
    {
      "constant": false,
      "inputs": [
        {
          "name": "_id",
          "type": "uint256"
        },
        {
          "name": "_star",
          "type": "uint256"
        },
        {
          "name": "_text",
          "type": "string"
        },
        {
          "name": "_sellerLibraAddress",
          "type": "string"
        }
      ],
      "name": "writeReviewToPurchaser",
      "outputs": [],
      "payable": false,
      "stateMutability": "nonpayable",
      "type": "function",
      "signature": "0x6c751da7"
    },
    {
      "constant": true,
      "inputs": [
        {
          "name": "_libraAddress",
          "type": "string"
        }
      ],
      "name": "getMyItemId",
      "outputs": [
        {
          "name": "",
          "type": "uint256[]"
        }
      ],
      "payable": false,
      "stateMutability": "view",
      "type": "function",
      "signature": "0x429101e5"
    },
    {
      "constant": true,
      "inputs": [
        {
          "name": "_id",
          "type": "uint256"
        }
      ],
      "name": "getMyItem",
      "outputs": [
        {
          "components": [
            {
              "name": "id",
              "type": "uint256"
            },
            {
              "name": "itemDetailContract",
              "type": "address"
            },
            {
              "name": "seller",
              "type": "string"
            },
            {
              "name": "purchaser",
              "type": "string"
            },
            {
              "name": "selling",
              "type": "bool"
            },
            {
              "name": "delivered",
              "type": "bool"
            }
          ],
          "name": "",
          "type": "tuple"
        }
      ],
      "payable": false,
      "stateMutability": "view",
      "type": "function",
      "signature": "0x2877d196"
    },
    {
      "constant": true,
      "inputs": [],
      "name": "getNumberOfItem",
      "outputs": [
        {
          "name": "",
          "type": "uint256"
        }
      ],
      "payable": false,
      "stateMutability": "view",
      "type": "function",
      "signature": "0x61978244"
    },
    {
      "constant": true,
      "inputs": [
        {
          "name": "_id",
          "type": "uint256"
        }
      ],
      "name": "getAllItem",
      "outputs": [
        {
          "components": [
            {
              "name": "id",
              "type": "uint256"
            },
            {
              "name": "itemDetailContract",
              "type": "address"
            },
            {
              "name": "seller",
              "type": "string"
            },
            {
              "name": "purchaser",
              "type": "string"
            },
            {
              "name": "selling",
              "type": "bool"
            },
            {
              "name": "delivered",
              "type": "bool"
            }
          ],
          "name": "",
          "type": "tuple"
        }
      ],
      "payable": false,
      "stateMutability": "view",
      "type": "function",
      "signature": "0x36fcee3b"
    },
    {
      "constant": true,
      "inputs": [
        {
          "name": "_selling",
          "type": "bool"
        }
      ],
      "name": "getOnSaleItemsId",
      "outputs": [
        {
          "name": "",
          "type": "uint256[]"
        }
      ],
      "payable": false,
      "stateMutability": "view",
      "type": "function",
      "signature": "0xf91aa97f"
    },
    {
      "constant": true,
      "inputs": [
        {
          "name": "_id",
          "type": "uint256"
        }
      ],
      "name": "getItemOnSale",
      "outputs": [
        {
          "components": [
            {
              "name": "id",
              "type": "uint256"
            },
            {
              "name": "itemDetailContract",
              "type": "address"
            },
            {
              "name": "seller",
              "type": "string"
            },
            {
              "name": "purchaser",
              "type": "string"
            },
            {
              "name": "selling",
              "type": "bool"
            },
            {
              "name": "delivered",
              "type": "bool"
            }
          ],
          "name": "",
          "type": "tuple"
        }
      ],
      "payable": false,
      "stateMutability": "view",
      "type": "function",
      "signature": "0xd399e230"
    },
    {
      "constant": true,
      "inputs": [
        {
          "name": "_libraAddress",
          "type": "string"
        }
      ],
      "name": "getMyPurchasedItemId",
      "outputs": [
        {
          "name": "",
          "type": "uint256[]"
        }
      ],
      "payable": false,
      "stateMutability": "view",
      "type": "function",
      "signature": "0xe9239e4e"
    },
    {
      "constant": true,
      "inputs": [
        {
          "name": "_id",
          "type": "uint256"
        }
      ],
      "name": "getMyPurchasedItem",
      "outputs": [
        {
          "components": [
            {
              "name": "id",
              "type": "uint256"
            },
            {
              "name": "itemDetailContract",
              "type": "address"
            },
            {
              "name": "seller",
              "type": "string"
            },
            {
              "name": "purchaser",
              "type": "string"
            },
            {
              "name": "selling",
              "type": "bool"
            },
            {
              "name": "delivered",
              "type": "bool"
            }
          ],
          "name": "",
          "type": "tuple"
        }
      ],
      "payable": false,
      "stateMutability": "view",
      "type": "function",
      "signature": "0xc7bff60e"
    },
    {
      "constant": true,
      "inputs": [
        {
          "name": "_userLibraAddress",
          "type": "string"
        }
      ],
      "name": "getUserInfo",
      "outputs": [
        {
          "components": [
            {
              "name": "userAddress",
              "type": "string"
            },
            {
              "name": "userName",
              "type": "string"
            },
            {
              "name": "userIcon",
              "type": "string"
            }
          ],
          "name": "",
          "type": "tuple"
        }
      ],
      "payable": false,
      "stateMutability": "view",
      "type": "function",
      "signature": "0x7c9b7fdd"
    },
    {
      "constant": true,
      "inputs": [
        {
          "name": "_id",
          "type": "uint256"
        }
      ],
      "name": "getSellerReview",
      "outputs": [
        {
          "components": [
            {
              "name": "itemId",
              "type": "uint256"
            },
            {
              "name": "star",
              "type": "uint256"
            },
            {
              "name": "text",
              "type": "string"
            }
          ],
          "name": "",
          "type": "tuple"
        }
      ],
      "payable": false,
      "stateMutability": "view",
      "type": "function",
      "signature": "0x4a05f128"
    },
    {
      "constant": true,
      "inputs": [
        {
          "name": "_id",
          "type": "uint256"
        }
      ],
      "name": "getPurchaserReview",
      "outputs": [
        {
          "components": [
            {
              "name": "itemId",
              "type": "uint256"
            },
            {
              "name": "star",
              "type": "uint256"
            },
            {
              "name": "text",
              "type": "string"
            }
          ],
          "name": "",
          "type": "tuple"
        }
      ],
      "payable": false,
      "stateMutability": "view",
      "type": "function",
      "signature": "0xbbb3da62"
    }
  ],
  "bytecode": "0x60806040526000805534801561001457600080fd5b50613272806100246000396000f3fe608060405234801561001057600080fd5b506004361061015f576000357c0100000000000000000000000000000000000000000000000000000000900480636c751da7116100d5578063c7bff60e11610099578063c7bff60e146103de578063d399e2301461040e578063e9239e4e1461043e578063f91aa97f1461046e578063fa0626a31461049e578063ff68fa6e146104d05761015f565b80636c751da71461032a5780637858f126146103465780637c9b7fdd146103625780638ffe411f14610392578063bbb3da62146103ae5761015f565b806336fcee3b1161012757806336fcee3b1461021a578063429101e51461024a5780634495f9aa1461027a5780634a05f128146102aa57806358c55939146102da578063619782441461030c5761015f565b8063134300081461016457806327b9661e146101805780632877d1961461019c5780632a6e5f63146101cc578063342803a6146101e8575b600080fd5b61017e60048036036101799190810190612658565b610505565b005b61019a6004803603610195919081019061286b565b610701565b005b6101b660048036036101b191908101906127ee565b610815565b6040516101c39190612daa565b60405180910390f35b6101e660048036036101e19190810190612817565b610a1c565b005b61020260048036036101fd91908101906127ee565b610d8d565b60405161021193929190612f84565b60405180910390f35b610234600480360361022f91908101906127ee565b610e4f565b6040516102419190612daa565b60405180910390f35b610264600480360361025f9190810190612716565b611056565b6040516102719190612cf0565b60405180910390f35b610294600480360361028f91908101906127ee565b6110cc565b6040516102a19190612e32565b60405180910390f35b6102c460048036036102bf91908101906127ee565b6110ed565b6040516102d19190612dee565b60405180910390f35b6102f460048036036102ef91908101906126d5565b6111d0565b60405161030393929190612d5e565b60405180910390f35b6103146113d8565b6040516103219190612e32565b60405180910390f35b610344600480360361033f919081019061286b565b6113e1565b005b610360600480360361035b9190810190612817565b6114f5565b005b61037c60048036036103779190810190612716565b6118eb565b6040516103899190612e10565b60405180910390f35b6103ac60048036036103a79190810190612757565b611b09565b005b6103c860048036036103c391908101906127ee565b611bdc565b6040516103d59190612dcc565b60405180910390f35b6103f860048036036103f391908101906127ee565b611cbf565b6040516104059190612daa565b60405180910390f35b610428600480360361042391908101906127ee565b611efa565b6040516104359190612daa565b60405180910390f35b61045860048036036104539190810190612716565b612137565b6040516104659190612cf0565b60405180910390f35b610488600480360361048391908101906126ac565b6121ad565b6040516104959190612cf0565b60405180910390f35b6104b860048036036104b391908101906127ee565b6121b4565b6040516104c793929190612f84565b60405180910390f35b6104ea60048036036104e591908101906127ee565b612276565b6040516104fc96959493929190612ebc565b60405180910390f35b6001600054016000819055506040518060c0016040528060005481526020018373ffffffffffffffffffffffffffffffffffffffff1681526020018281526020016040518060600160405280603a81526020016131ff603a913981526020016001151581526020016000151581525060026000805481526020019081526020016000206000820151816000015560208201518160010160006101000a81548173ffffffffffffffffffffffffffffffffffffffff021916908373ffffffffffffffffffffffffffffffffffffffff16021790555060408201518160020190805190602001906105f592919061241c565b50606082015181600301908051906020019061061292919061241c565b5060808201518160040160006101000a81548160ff02191690831515021790555060a08201518160040160016101000a81548160ff0219169083151502179055509050506003816040516106669190612cd9565b908152602001604051809103902060005490806001815401808255809150509060018203906000526020600020016000909192909190915055507ffbe5b2f4c9ad9a571b53cabde1c0829fd86560826b80d1005a787d275c2155ab60005483836040518060600160405280603a81526020016131ff603a9139600160006040516106f596959493929190612e4d565b60405180910390a15050565b600015156002600086815260200190815260200160002060040160009054906101000a900460ff1615151461073557600080fd5b8080519060200120600260008681526020019081526020016000206003016040516107609190612cc2565b60405180910390201461077257600080fd5b60405180606001604052808581526020018481526020018381525060066000868152602001908152602001600020600082015181600001556020820151816001015560408201518160020190805190602001906107d092919061241c565b509050507f2da3ea64410ead21f3ff98fbcddd5a3c9e297be46413dfbda5f69ca8c4afa64e84848460405161080793929190612fc2565b60405180910390a150505050565b61081d61249c565b600260008381526020019081526020016000206040518060c0016040529081600082015481526020016001820160009054906101000a900473ffffffffffffffffffffffffffffffffffffffff1673ffffffffffffffffffffffffffffffffffffffff1673ffffffffffffffffffffffffffffffffffffffff168152602001600282018054600181600116156101000203166002900480601f0160208091040260200160405190810160405280929190818152602001828054600181600116156101000203166002900480156109345780601f1061090957610100808354040283529160200191610934565b820191906000526020600020905b81548152906001019060200180831161091757829003601f168201915b50505050508152602001600382018054600181600116156101000203166002900480601f0160208091040260200160405190810160405280929190818152602001828054600181600116156101000203166002900480156109d65780601f106109ab576101008083540402835291602001916109d6565b820191906000526020600020905b8154815290600101906020018083116109b957829003601f168201915b505050505081526020016004820160009054906101000a900460ff161515151581526020016004820160019054906101000a900460ff1615151515815250509050919050565b808051906020012060026000848152602001908152602001600020600301604051610a479190612cc2565b604051809103902014610a5957600080fd5b610a6161249c565b600260008481526020019081526020016000206040518060c0016040529081600082015481526020016001820160009054906101000a900473ffffffffffffffffffffffffffffffffffffffff1673ffffffffffffffffffffffffffffffffffffffff1673ffffffffffffffffffffffffffffffffffffffff168152602001600282018054600181600116156101000203166002900480601f016020809104026020016040519081016040528092919081815260200182805460018160011615610100020316600290048015610b785780601f10610b4d57610100808354040283529160200191610b78565b820191906000526020600020905b815481529060010190602001808311610b5b57829003601f168201915b50505050508152602001600382018054600181600116156101000203166002900480601f016020809104026020016040519081016040528092919081815260200182805460018160011615610100020316600290048015610c1a5780601f10610bef57610100808354040283529160200191610c1a565b820191906000526020600020905b815481529060010190602001808311610bfd57829003601f168201915b505050505081526020016004820160009054906101000a900460ff161515151581526020016004820160019054906101000a900460ff161515151581525050905060018160a001901515908115158152505080600260008581526020019081526020016000206000820151816000015560208201518160010160006101000a81548173ffffffffffffffffffffffffffffffffffffffff021916908373ffffffffffffffffffffffffffffffffffffffff1602179055506040820151816002019080519060200190610ced92919061241c565b506060820151816003019080519060200190610d0a92919061241c565b5060808201518160040160006101000a81548160ff02191690831515021790555060a08201518160040160016101000a81548160ff0219169083151502179055509050507f4fdee96e263fefac031214d878e7f02e364ccb1ac73f0ffad453ed06fa303bb6836001604051610d80929190612f2b565b60405180910390a1505050565b6007602052806000526040600020600091509050806000015490806001015490806002018054600181600116156101000203166002900480601f016020809104026020016040519081016040528092919081815260200182805460018160011615610100020316600290048015610e455780601f10610e1a57610100808354040283529160200191610e45565b820191906000526020600020905b815481529060010190602001808311610e2857829003601f168201915b5050505050905083565b610e5761249c565b600260008381526020019081526020016000206040518060c0016040529081600082015481526020016001820160009054906101000a900473ffffffffffffffffffffffffffffffffffffffff1673ffffffffffffffffffffffffffffffffffffffff1673ffffffffffffffffffffffffffffffffffffffff168152602001600282018054600181600116156101000203166002900480601f016020809104026020016040519081016040528092919081815260200182805460018160011615610100020316600290048015610f6e5780601f10610f4357610100808354040283529160200191610f6e565b820191906000526020600020905b815481529060010190602001808311610f5157829003601f168201915b50505050508152602001600382018054600181600116156101000203166002900480601f0160208091040260200160405190810160405280929190818152602001828054600181600116156101000203166002900480156110105780601f10610fe557610100808354040283529160200191611010565b820191906000526020600020905b815481529060010190602001808311610ff357829003601f168201915b505050505081526020016004820160009054906101000a900460ff161515151581526020016004820160019054906101000a900460ff1615151515815250509050919050565b60606003826040516110689190612cd9565b90815260200160405180910390208054806020026020016040519081016040528092919081815260200182805480156110c057602002820191906000526020600020905b8154815260200190600101908083116110ac575b50505050509050919050565b600181815481106110d957fe5b906000526020600020016000915090505481565b6110f56124ec565b600660008381526020019081526020016000206040518060600160405290816000820154815260200160018201548152602001600282018054600181600116156101000203166002900480601f0160208091040260200160405190810160405280929190818152602001828054600181600116156101000203166002900480156111c05780601f10611195576101008083540402835291602001916111c0565b820191906000526020600020905b8154815290600101906020018083116111a357829003601f168201915b5050505050815250509050919050565b600581805160208101820180518482526020830160208501208183528095505050505050600091509050806000018054600181600116156101000203166002900480601f0160208091040260200160405190810160405280929190818152602001828054600181600116156101000203166002900480156112925780601f1061126757610100808354040283529160200191611292565b820191906000526020600020905b81548152906001019060200180831161127557829003601f168201915b505050505090806001018054600181600116156101000203166002900480601f0160208091040260200160405190810160405280929190818152602001828054600181600116156101000203166002900480156113305780601f1061130557610100808354040283529160200191611330565b820191906000526020600020905b81548152906001019060200180831161131357829003601f168201915b505050505090806002018054600181600116156101000203166002900480601f0160208091040260200160405190810160405280929190818152602001828054600181600116156101000203166002900480156113ce5780601f106113a3576101008083540402835291602001916113ce565b820191906000526020600020905b8154815290600101906020018083116113b157829003601f168201915b5050505050905083565b60008054905090565b600015156002600086815260200190815260200160002060040160009054906101000a900460ff1615151461141557600080fd5b8080519060200120600260008681526020019081526020016000206002016040516114409190612cc2565b60405180910390201461145257600080fd5b60405180606001604052808581526020018481526020018381525060076000868152602001908152602001600020600082015181600001556020820151816001015560408201518160020190805190602001906114b092919061241c565b509050507fc0c0cf8f27a90e3b9862a6149eb84b21e1bbf195b7087b14e20dd272e7463d6f8484846040516114e793929190612fc2565b60405180910390a150505050565b600115156002600084815260200190815260200160002060040160009054906101000a900460ff1615151461152957600080fd5b8080519060200120600260008481526020019081526020016000206002016040516115549190612cc2565b6040518091039020141561156757600080fd5b61156f61249c565b600260008481526020019081526020016000206040518060c0016040529081600082015481526020016001820160009054906101000a900473ffffffffffffffffffffffffffffffffffffffff1673ffffffffffffffffffffffffffffffffffffffff1673ffffffffffffffffffffffffffffffffffffffff168152602001600282018054600181600116156101000203166002900480601f0160208091040260200160405190810160405280929190818152602001828054600181600116156101000203166002900480156116865780601f1061165b57610100808354040283529160200191611686565b820191906000526020600020905b81548152906001019060200180831161166957829003601f168201915b50505050508152602001600382018054600181600116156101000203166002900480601f0160208091040260200160405190810160405280929190818152602001828054600181600116156101000203166002900480156117285780601f106116fd57610100808354040283529160200191611728565b820191906000526020600020905b81548152906001019060200180831161170b57829003601f168201915b505050505081526020016004820160009054906101000a900460ff161515151581526020016004820160019054906101000a900460ff1615151515815250509050600081608001901515908115158152505081816060018190525080600260008581526020019081526020016000206000820151816000015560208201518160010160006101000a81548173ffffffffffffffffffffffffffffffffffffffff021916908373ffffffffffffffffffffffffffffffffffffffff160217905550604082015181600201908051906020019061180492919061241c565b50606082015181600301908051906020019061182192919061241c565b5060808201518160040160006101000a81548160ff02191690831515021790555060a08201518160040160016101000a81548160ff0219169083151502179055509050506004826040516118759190612cd9565b90815260200160405180910390208390806001815401808255809150509060018203906000526020600020016000909192909190915055507ffc4a8daf3444e24c99bf28564cf722ae54240100d7e04b2897640d1a1cd9fac083836040516118de929190612f54565b60405180910390a1505050565b6118f361250d565b6005826040516119039190612cd9565b9081526020016040518091039020604051806060016040529081600082018054600181600116156101000203166002900480601f0160208091040260200160405190810160405280929190818152602001828054600181600116156101000203166002900480156119b55780601f1061198a576101008083540402835291602001916119b5565b820191906000526020600020905b81548152906001019060200180831161199857829003601f168201915b50505050508152602001600182018054600181600116156101000203166002900480601f016020809104026020016040519081016040528092919081815260200182805460018160011615610100020316600290048015611a575780601f10611a2c57610100808354040283529160200191611a57565b820191906000526020600020905b815481529060010190602001808311611a3a57829003601f168201915b50505050508152602001600282018054600181600116156101000203166002900480601f016020809104026020016040519081016040528092919081815260200182805460018160011615610100020316600290048015611af95780601f10611ace57610100808354040283529160200191611af9565b820191906000526020600020905b815481529060010190602001808311611adc57829003601f168201915b5050505050815250509050919050565b604051806060016040528082815260200184815260200183815250600582604051611b349190612cd9565b90815260200160405180910390206000820151816000019080519060200190611b5e92919061241c565b506020820151816001019080519060200190611b7b92919061241c565b506040820151816002019080519060200190611b9892919061241c565b509050507f488cbdd85eb9b8295c7f0cbcdb3bc9c06de90f919b4e81319e586499927c7670818484604051611bcf93929190612d12565b60405180910390a1505050565b611be461252e565b600760008381526020019081526020016000206040518060600160405290816000820154815260200160018201548152602001600282018054600181600116156101000203166002900480601f016020809104026020016040519081016040528092919081815260200182805460018160011615610100020316600290048015611caf5780601f10611c8457610100808354040283529160200191611caf565b820191906000526020600020905b815481529060010190602001808311611c9257829003601f168201915b5050505050815250509050919050565b611cc761249c565b600015156002600084815260200190815260200160002060040160009054906101000a900460ff16151514611cfb57600080fd5b600260008381526020019081526020016000206040518060c0016040529081600082015481526020016001820160009054906101000a900473ffffffffffffffffffffffffffffffffffffffff1673ffffffffffffffffffffffffffffffffffffffff1673ffffffffffffffffffffffffffffffffffffffff168152602001600282018054600181600116156101000203166002900480601f016020809104026020016040519081016040528092919081815260200182805460018160011615610100020316600290048015611e125780601f10611de757610100808354040283529160200191611e12565b820191906000526020600020905b815481529060010190602001808311611df557829003601f168201915b50505050508152602001600382018054600181600116156101000203166002900480601f016020809104026020016040519081016040528092919081815260200182805460018160011615610100020316600290048015611eb45780601f10611e8957610100808354040283529160200191611eb4565b820191906000526020600020905b815481529060010190602001808311611e9757829003601f168201915b505050505081526020016004820160009054906101000a900460ff161515151581526020016004820160019054906101000a900460ff1615151515815250509050919050565b611f0261249c565b600115156002600084815260200190815260200160002060040160009054906101000a900460ff161515141561213157600260008381526020019081526020016000206040518060c0016040529081600082015481526020016001820160009054906101000a900473ffffffffffffffffffffffffffffffffffffffff1673ffffffffffffffffffffffffffffffffffffffff1673ffffffffffffffffffffffffffffffffffffffff168152602001600282018054600181600116156101000203166002900480601f0160208091040260200160405190810160405280929190818152602001828054600181600116156101000203166002900480156120495780601f1061201e57610100808354040283529160200191612049565b820191906000526020600020905b81548152906001019060200180831161202c57829003601f168201915b50505050508152602001600382018054600181600116156101000203166002900480601f0160208091040260200160405190810160405280929190818152602001828054600181600116156101000203166002900480156120eb5780601f106120c0576101008083540402835291602001916120eb565b820191906000526020600020905b8154815290600101906020018083116120ce57829003601f168201915b505050505081526020016004820160009054906101000a900460ff161515151581526020016004820160019054906101000a900460ff1615151515815250509050612132565b5b919050565b60606004826040516121499190612cd9565b90815260200160405180910390208054806020026020016040519081016040528092919081815260200182805480156121a157602002820191906000526020600020905b81548152602001906001019080831161218d575b50505050509050919050565b6060919050565b6006602052806000526040600020600091509050806000015490806001015490806002018054600181600116156101000203166002900480601f01602080910402602001604051908101604052809291908181526020018280546001816001161561010002031660029004801561226c5780601f106122415761010080835404028352916020019161226c565b820191906000526020600020905b81548152906001019060200180831161224f57829003601f168201915b5050505050905083565b60026020528060005260406000206000915090508060000154908060010160009054906101000a900473ffffffffffffffffffffffffffffffffffffffff1690806002018054600181600116156101000203166002900480601f01602080910402602001604051908101604052809291908181526020018280546001816001161561010002031660029004801561234e5780601f106123235761010080835404028352916020019161234e565b820191906000526020600020905b81548152906001019060200180831161233157829003601f168201915b505050505090806003018054600181600116156101000203166002900480601f0160208091040260200160405190810160405280929190818152602001828054600181600116156101000203166002900480156123ec5780601f106123c1576101008083540402835291602001916123ec565b820191906000526020600020905b8154815290600101906020018083116123cf57829003601f168201915b5050505050908060040160009054906101000a900460ff16908060040160019054906101000a900460ff16905086565b828054600181600116156101000203166002900490600052602060002090601f016020900481019282601f1061245d57805160ff191683800117855561248b565b8280016001018555821561248b579182015b8281111561248a57825182559160200191906001019061246f565b5b509050612498919061254f565b5090565b6040518060c0016040528060008152602001600073ffffffffffffffffffffffffffffffffffffffff16815260200160608152602001606081526020016000151581526020016000151581525090565b60405180606001604052806000815260200160008152602001606081525090565b60405180606001604052806060815260200160608152602001606081525090565b60405180606001604052806000815260200160008152602001606081525090565b61257191905b8082111561256d576000816000905550600101612555565b5090565b90565b60006125808235613163565b905092915050565b60006125948235613175565b905092915050565b600082601f8301126125ad57600080fd5b81356125c06125bb8261302d565b613000565b915080825260208301602083018583830111156125dc57600080fd5b6125e78382846131ab565b50505092915050565b600082601f83011261260157600080fd5b813561261461260f82613059565b613000565b9150808252602083016020830185838301111561263057600080fd5b61263b8382846131ab565b50505092915050565b600061265082356131a1565b905092915050565b6000806040838503121561266b57600080fd5b600061267985828601612574565b925050602083013567ffffffffffffffff81111561269657600080fd5b6126a2858286016125f0565b9150509250929050565b6000602082840312156126be57600080fd5b60006126cc84828501612588565b91505092915050565b6000602082840312156126e757600080fd5b600082013567ffffffffffffffff81111561270157600080fd5b61270d8482850161259c565b91505092915050565b60006020828403121561272857600080fd5b600082013567ffffffffffffffff81111561274257600080fd5b61274e848285016125f0565b91505092915050565b60008060006060848603121561276c57600080fd5b600084013567ffffffffffffffff81111561278657600080fd5b612792868287016125f0565b935050602084013567ffffffffffffffff8111156127af57600080fd5b6127bb868287016125f0565b925050604084013567ffffffffffffffff8111156127d857600080fd5b6127e4868287016125f0565b9150509250925092565b60006020828403121561280057600080fd5b600061280e84828501612644565b91505092915050565b6000806040838503121561282a57600080fd5b600061283885828601612644565b925050602083013567ffffffffffffffff81111561285557600080fd5b612861858286016125f0565b9150509250929050565b6000806000806080858703121561288157600080fd5b600061288f87828801612644565b94505060206128a087828801612644565b935050604085013567ffffffffffffffff8111156128bd57600080fd5b6128c9878288016125f0565b925050606085013567ffffffffffffffff8111156128e657600080fd5b6128f2878288016125f0565b91505092959194509250565b600061290a8383612ca4565b60208301905092915050565b61291f8161311b565b82525050565b61292e8161311b565b82525050565b600061293f826130a4565b61294981856130d2565b935061295483613085565b60005b828110156129825761296a8683516128fe565b9550612975826130c5565b9150600181019050612957565b50849250505092915050565b6129978161312d565b82525050565b6129a68161312d565b82525050565b6000815460018116600081146129c957600181146129ee57612a32565b607f60028304166129da81876130e3565b955060ff1983168652808601935050612a32565b600282046129fc81876130e3565b9550612a0785613092565b60005b82811015612a2957815481890152600182019150602081019050612a0a565b82880195505050505b505092915050565b6000612a45826130ba565b612a4f81856130ff565b9350612a5f8185602086016131ba565b612a68816131ed565b840191505092915050565b6000612a7e826130ba565b612a888185613110565b9350612a988185602086016131ba565b80840191505092915050565b6000612aaf826130af565b612ab981856130ee565b9350612ac98185602086016131ba565b612ad2816131ed565b840191505092915050565b6000612ae8826130af565b612af281856130ff565b9350612b028185602086016131ba565b612b0b816131ed565b840191505092915050565b600060c083016000830151612b2e6000860182612ca4565b506020830151612b416020860182612916565b5060408301518482036040860152612b598282612aa4565b91505060608301518482036060860152612b738282612aa4565b9150506080830151612b88608086018261298e565b5060a0830151612b9b60a086018261298e565b508091505092915050565b6000606083016000830151612bbe6000860182612ca4565b506020830151612bd16020860182612ca4565b5060408301518482036040860152612be98282612aa4565b9150508091505092915050565b6000606083016000830151612c0e6000860182612ca4565b506020830151612c216020860182612ca4565b5060408301518482036040860152612c398282612aa4565b9150508091505092915050565b60006060830160008301518482036000860152612c638282612aa4565b91505060208301518482036020860152612c7d8282612aa4565b91505060408301518482036040860152612c978282612aa4565b9150508091505092915050565b612cad81613159565b82525050565b612cbc81613159565b82525050565b6000612cce82846129ac565b915081905092915050565b6000612ce58284612a73565b915081905092915050565b60006020820190508181036000830152612d0a8184612934565b905092915050565b60006060820190508181036000830152612d2c8186612a3a565b90508181036020830152612d408185612a3a565b90508181036040830152612d548184612a3a565b9050949350505050565b60006060820190508181036000830152612d788186612add565b90508181036020830152612d8c8185612add565b90508181036040830152612da08184612add565b9050949350505050565b60006020820190508181036000830152612dc48184612b16565b905092915050565b60006020820190508181036000830152612de68184612ba6565b905092915050565b60006020820190508181036000830152612e088184612bf6565b905092915050565b60006020820190508181036000830152612e2a8184612c46565b905092915050565b6000602082019050612e476000830184612cb3565b92915050565b600060c082019050612e626000830189612cb3565b612e6f6020830188612925565b8181036040830152612e818187612a3a565b90508181036060830152612e958186612add565b9050612ea4608083018561299d565b612eb160a083018461299d565b979650505050505050565b600060c082019050612ed16000830189612cb3565b612ede6020830188612925565b8181036040830152612ef08187612add565b90508181036060830152612f048186612add565b9050612f13608083018561299d565b612f2060a083018461299d565b979650505050505050565b6000604082019050612f406000830185612cb3565b612f4d602083018461299d565b9392505050565b6000604082019050612f696000830185612cb3565b8181036020830152612f7b8184612a3a565b90509392505050565b6000606082019050612f996000830186612cb3565b612fa66020830185612cb3565b8181036040830152612fb88184612add565b9050949350505050565b6000606082019050612fd76000830186612cb3565b612fe46020830185612cb3565b8181036040830152612ff68184612a3a565b9050949350505050565b6000604051905081810181811067ffffffffffffffff8211171561302357600080fd5b8060405250919050565b600067ffffffffffffffff82111561304457600080fd5b601f19601f8301169050602081019050919050565b600067ffffffffffffffff82111561307057600080fd5b601f19601f8301169050602081019050919050565b6000602082019050919050565b60008160005260206000209050919050565b600081519050919050565b600081519050919050565b600081519050919050565b6000602082019050919050565b600082825260208201905092915050565b600081905092915050565b600082825260208201905092915050565b600082825260208201905092915050565b600081905092915050565b600061312682613139565b9050919050565b60008115159050919050565b600073ffffffffffffffffffffffffffffffffffffffff82169050919050565b6000819050919050565b600061316e82613181565b9050919050565b60008115159050919050565b600073ffffffffffffffffffffffffffffffffffffffff82169050919050565b6000819050919050565b82818337600083830152505050565b60005b838110156131d85780820151818401526020810190506131bd565b838111156131e7576000848401525b50505050565b6000601f19601f830116905091905056fe30303030303030303030303030303030303030303030303030303030303030303030303030303030303030303030303030303030303030303030a265627a7a723058205c98da4f1ccdf2b16651e94ef401368093769b6e353f7ba74c19fa4970fc60666c6578706572696d656e74616cf50037",
  "source": "pragma solidity ^0.5.0;\npragma experimental ABIEncoderV2;\n\ncontract FLibra {\n\n  string constant temporaryPurchaser = \"0000000000000000000000000000000000000000000000000000000000\";\n  uint256 internal itemId = 0;\n  uint256[] public onSaleItems;\n\n  mapping(uint => Item) public allItems;\n\n  mapping(string => uint[]) internal myItemId;\n  mapping(string => uint[]) internal myPurchasedItemId;\n  mapping(string => User) public UserInfo;\n  mapping(uint256 => SellerReview) public reviewToSeller;\n  mapping(uint256 => PurchaserReview) public reviewToPurchaser;\n\n  // structs\n  struct Item {\n    uint256 id;\n    address itemDetailContract;\n    string seller;\n    string purchaser;\n    bool selling;\n    bool delivered;\n  }\n\n  struct User {\n    string userAddress;\n    string userName;\n    string userIcon;\n  }\n\n  struct SellerReview {\n    uint256 itemId;\n    uint256 star;\n    string text;\n  }\n\n  struct PurchaserReview {\n    uint256 itemId;\n    uint256 star;\n    string text;\n  }\n\n  //events\n  event PostItem(uint256 id, address itemDetailContract, string seller, string purchaser, bool selling, bool delivered);\n  event ItemPurchased(uint256 id, string purchaser);\n  event ItemDelivered(uint256 id, bool delivered);\n  // EditItem(uint256 id, string itemName, uint256 price);\n  event UserInfoCreated(string userAddress, string userName, string userIcon);\n  event WriteReviewToSeller(uint256 itemId, uint256 star, string text);\n  event WriteReviewToPurchaser(uint256 itemId, uint256 star, string text);\n\n  constructor() public {\n\n  }\n\n  // -------- Create user info --------\n  function setUserInfo(string memory _userName, string memory _userIcon, string memory _userLibraAddress) public {\n    UserInfo[_userLibraAddress] = User(_userLibraAddress, _userName, _userIcon);\n    emit UserInfoCreated(_userLibraAddress, _userName, _userIcon);\n  } \n\n  // -------- Post a Item --------\n  function postItem(address _itemDetailContract, string memory _sellerLibraAddress) public {\n    itemId = itemId + 1;\n    allItems[itemId] = Item(itemId, _itemDetailContract, _sellerLibraAddress, temporaryPurchaser, true, false);\n    myItemId[_sellerLibraAddress].push(itemId);\n    //onSaleItems[allItems[itemId].selling].push(allItems[itemId].id);\n    emit PostItem(itemId, _itemDetailContract, _sellerLibraAddress, temporaryPurchaser, true, false);\n  }\n\n  // -------- Purchase a Item --------\n  function purchaseItem(uint256 _id, string memory _purchaserLibraAddress) public {\n    require(allItems[_id].selling == bool(true));\n    require(keccak256(bytes(allItems[_id].seller)) != keccak256(bytes(_purchaserLibraAddress)));\n    Item memory _item = allItems[_id];\n    _item.selling = bool(false);\n    _item.purchaser = _purchaserLibraAddress;\n    allItems[_id] = _item;\n    myPurchasedItemId[_purchaserLibraAddress].push(_id);\n    emit ItemPurchased(_id, _purchaserLibraAddress);\n  }\n\n  function itemDelivered(uint256 _id, string memory _purchaserLibraAddress) public {\n    require(keccak256(bytes(allItems[_id].purchaser)) == keccak256(bytes(_purchaserLibraAddress)));\n    Item memory _item = allItems[_id];\n    _item.delivered = bool(true);\n    allItems[_id] = _item;\n    emit ItemDelivered(_id, true);\n  }\n\n  // -------- Write Review to Seller --------\n  function writeReviewToSeller(uint256 _id, uint256 _star, string memory _text, string memory _purchaserLibraAddress) public {\n    require(allItems[_id].selling == bool(false));\n    require(keccak256(bytes(allItems[_id].purchaser)) == keccak256(bytes(_purchaserLibraAddress)));\n    reviewToSeller[_id] = SellerReview(_id, _star, _text);\n    emit WriteReviewToSeller(_id, _star, _text);\n  }\n\n  // -------- Write Review to Purchaser --------\n  function writeReviewToPurchaser(uint256 _id, uint256 _star, string memory _text, string memory _sellerLibraAddress) public {\n    require(allItems[_id].selling == bool(false));\n    require(keccak256(bytes(allItems[_id].seller)) == keccak256(bytes(_sellerLibraAddress)));\n    reviewToPurchaser[_id] = PurchaserReview(_id, _star, _text);\n    emit WriteReviewToPurchaser(_id, _star, _text);\n  }\n\n  // -------- My Items --------\n  function getMyItemId(string memory _libraAddress) public view returns (uint[] memory) {\n    return myItemId[_libraAddress];\n  }\n\n  function getMyItem(uint256 _id) public view returns (Item memory) {\n    return allItems[_id];\n  } \n\n  // -------- All Items --------\n  function getNumberOfItem() public view returns (uint256) {\n    return itemId;\n  }\n\n  function getAllItem(uint256 _id) public view returns (Item memory) {\n    return allItems[_id];\n  } \n\n  // -------- On Sale Items --------\n  function getOnSaleItemsId(bool _selling) public view returns (uint[] memory) {\n\n  }\n\n  function getItemOnSale(uint256 _id) public view returns (Item memory) {\n    if (allItems[_id].selling == bool(true)) {\n      return allItems[_id];\n    }\n  }\n\n  // -------- My Purchased Items --------\n  function getMyPurchasedItemId(string memory _libraAddress) public view returns (uint[] memory) {\n    return myPurchasedItemId[_libraAddress];\n  }\n\n  function getMyPurchasedItem(uint256 _id) public view returns (Item memory) {\n    require(allItems[_id].selling == bool(false) );\n    return allItems[_id];\n  } \n\n  // -------- UserInfo --------\n  function getUserInfo(string memory _userLibraAddress) public view returns (User memory) {\n    return UserInfo[_userLibraAddress];\n  }\n\n  // -------- Review --------\n  function getSellerReview(uint256 _id) public view returns (SellerReview memory) {\n    return reviewToSeller[_id];\n  } \n\n  function getPurchaserReview(uint256 _id) public view returns (PurchaserReview memory) {\n    return reviewToPurchaser[_id];\n  } \n}",
  "sourcePath": "/Users/yosuke.aramaki/Desktop/proto/fLibra/truffle/contracts/Flibra.sol",
  "compiler": {
    "name": "solc",
    "version": "0.5.7+commit.6da8b019.Darwin.appleclang"
  },
  "schemaVersion": "3.0.2",
  "updatedAt": "2019-12-17T11:33:22.384Z",
  "devdoc": {
    "methods": {}
  },
  "userdoc": {
    "methods": {}
  }
}