{
  "contractName": "ItemDetail",
  "abi": [
    {
      "constant": true,
      "inputs": [],
      "name": "getOwner",
      "outputs": [
        {
          "internalType": "address",
          "name": "",
          "type": "address"
        }
      ],
      "payable": false,
      "stateMutability": "view",
      "type": "function"
    },
    {
      "constant": true,
      "inputs": [
        {
          "internalType": "uint256",
          "name": "",
          "type": "uint256"
        }
      ],
      "name": "item",
      "outputs": [
        {
          "internalType": "string",
          "name": "itemName",
          "type": "string"
        },
        {
          "internalType": "string",
          "name": "itemPhoto",
          "type": "string"
        },
        {
          "internalType": "uint256",
          "name": "price",
          "type": "uint256"
        },
        {
          "internalType": "string",
          "name": "itemDetailText",
          "type": "string"
        },
        {
          "internalType": "uint256",
          "name": "category",
          "type": "uint256"
        },
        {
          "internalType": "uint256",
          "name": "itemCondition",
          "type": "uint256"
        }
      ],
      "payable": false,
      "stateMutability": "view",
      "type": "function"
    },
    {
      "constant": false,
      "inputs": [],
      "name": "deleteItem",
      "outputs": [],
      "payable": true,
      "stateMutability": "payable",
      "type": "function"
    },
    {
      "constant": true,
      "inputs": [],
      "name": "getItem",
      "outputs": [
        {
          "components": [
            {
              "internalType": "string",
              "name": "itemName",
              "type": "string"
            },
            {
              "internalType": "string",
              "name": "itemPhoto",
              "type": "string"
            },
            {
              "internalType": "uint256",
              "name": "price",
              "type": "uint256"
            },
            {
              "internalType": "string",
              "name": "itemDetailText",
              "type": "string"
            },
            {
              "internalType": "uint256",
              "name": "category",
              "type": "uint256"
            },
            {
              "internalType": "uint256",
              "name": "itemCondition",
              "type": "uint256"
            }
          ],
          "internalType": "struct ItemDetail.Item",
          "name": "",
          "type": "tuple"
        }
      ],
      "payable": false,
      "stateMutability": "view",
      "type": "function"
    },
    {
      "constant": false,
      "inputs": [
        {
          "internalType": "string",
          "name": "_itemName",
          "type": "string"
        },
        {
          "internalType": "string",
          "name": "_itemPhoto",
          "type": "string"
        },
        {
          "internalType": "uint256",
          "name": "_price",
          "type": "uint256"
        },
        {
          "internalType": "string",
          "name": "_itemDetailText",
          "type": "string"
        },
        {
          "internalType": "uint256",
          "name": "_category",
          "type": "uint256"
        },
        {
          "internalType": "uint256",
          "name": "_itemCondition",
          "type": "uint256"
        }
      ],
      "name": "editItem",
      "outputs": [],
      "payable": false,
      "stateMutability": "nonpayable",
      "type": "function"
    },
    {
      "inputs": [
        {
          "internalType": "string",
          "name": "_itemName",
          "type": "string"
        },
        {
          "internalType": "string",
          "name": "_itemPhoto",
          "type": "string"
        },
        {
          "internalType": "uint256",
          "name": "_price",
          "type": "uint256"
        },
        {
          "internalType": "string",
          "name": "_itemDetailText",
          "type": "string"
        },
        {
          "internalType": "uint256",
          "name": "_category",
          "type": "uint256"
        },
        {
          "internalType": "uint256",
          "name": "_itemCondition",
          "type": "uint256"
        }
      ],
      "payable": false,
      "stateMutability": "nonpayable",
      "type": "constructor"
    },
    {
      "anonymous": false,
      "inputs": [
        {
          "indexed": false,
          "internalType": "string",
          "name": "_itemName",
          "type": "string"
        },
        {
          "indexed": false,
          "internalType": "string",
          "name": "_itemPhoto",
          "type": "string"
        },
        {
          "indexed": false,
          "internalType": "uint256",
          "name": "_price",
          "type": "uint256"
        },
        {
          "indexed": false,
          "internalType": "string",
          "name": "_itemDetailText",
          "type": "string"
        },
        {
          "indexed": false,
          "internalType": "uint256",
          "name": "_category",
          "type": "uint256"
        },
        {
          "indexed": false,
          "internalType": "uint256",
          "name": "_itemCondition",
          "type": "uint256"
        }
      ],
      "name": "EditItem",
      "type": "event"
    }
  ],
  "bytecode": "0x60806040523480156200001157600080fd5b50604051620014183803806200141883398181016040526200003791908101906200027e565b33600160006101000a81548173ffffffffffffffffffffffffffffffffffffffff021916908373ffffffffffffffffffffffffffffffffffffffff16021790555060006040518060c0016040528088815260200187815260200186815260200185815260200184815260200183815250908060018154018082558091505090600182039060005260206000209060060201600090919290919091506000820151816000019080519060200190620000f09291906200015c565b5060208201518160010190805190602001906200010f9291906200015c565b50604082015181600201556060820151816003019080519060200190620001389291906200015c565b506080820151816004015560a0820151816005015550505050505050505062000414565b828054600181600116156101000203166002900490600052602060002090601f016020900481019282601f106200019f57805160ff1916838001178555620001d0565b82800160010185558215620001d0579182015b82811115620001cf578251825591602001919060010190620001b2565b5b509050620001df9190620001e3565b5090565b6200020891905b8082111562000204576000816000905550600101620001ea565b5090565b90565b600082601f8301126200021d57600080fd5b8151620002346200022e826200038d565b6200035f565b915080825260208301602083018583830111156200025157600080fd5b6200025e838284620003c4565b50505092915050565b6000815190506200027881620003fa565b92915050565b60008060008060008060c087890312156200029857600080fd5b600087015167ffffffffffffffff811115620002b357600080fd5b620002c189828a016200020b565b965050602087015167ffffffffffffffff811115620002df57600080fd5b620002ed89828a016200020b565b95505060406200030089828a0162000267565b945050606087015167ffffffffffffffff8111156200031e57600080fd5b6200032c89828a016200020b565b93505060806200033f89828a0162000267565b92505060a06200035289828a0162000267565b9150509295509295509295565b6000604051905081810181811067ffffffffffffffff821117156200038357600080fd5b8060405250919050565b600067ffffffffffffffff821115620003a557600080fd5b601f19601f8301169050602081019050919050565b6000819050919050565b60005b83811015620003e4578082015181840152602081019050620003c7565b83811115620003f4576000848401525b50505050565b6200040581620003ba565b81146200041157600080fd5b50565b610ff480620004246000396000f3fe60806040526004361061004a5760003560e01c8063893d20e81461004f578063898e62191461007a5780638b532f39146100bc578063c412eaba146100c6578063e08baa06146100f1575b600080fd5b34801561005b57600080fd5b5061006461011a565b6040516100719190610d51565b60405180910390f35b34801561008657600080fd5b506100a1600480360361009c9190810190610bb9565b610144565b6040516100b396959493929190610de2565b60405180910390f35b6100c4610355565b005b3480156100d257600080fd5b506100db6103c8565b6040516100e89190610e58565b60405180910390f35b3480156100fd57600080fd5b5061011860048036036101139190810190610ae8565b6105ff565b005b6000600160009054906101000a900473ffffffffffffffffffffffffffffffffffffffff16905090565b6000818154811061015157fe5b9060005260206000209060060201600091509050806000018054600181600116156101000203166002900480601f0160208091040260200160405190810160405280929190818152602001828054600181600116156101000203166002900480156101fd5780601f106101d2576101008083540402835291602001916101fd565b820191906000526020600020905b8154815290600101906020018083116101e057829003601f168201915b505050505090806001018054600181600116156101000203166002900480601f01602080910402602001604051908101604052809291908181526020018280546001816001161561010002031660029004801561029b5780601f106102705761010080835404028352916020019161029b565b820191906000526020600020905b81548152906001019060200180831161027e57829003601f168201915b505050505090806002015490806003018054600181600116156101000203166002900480601f01602080910402602001604051908101604052809291908181526020018280546001816001161561010002031660029004801561033f5780601f106103145761010080835404028352916020019161033f565b820191906000526020600020905b81548152906001019060200180831161032257829003601f168201915b5050505050908060040154908060050154905086565b3373ffffffffffffffffffffffffffffffffffffffff16600160009054906101000a900473ffffffffffffffffffffffffffffffffffffffff1673ffffffffffffffffffffffffffffffffffffffff16146103af57600080fd5b3373ffffffffffffffffffffffffffffffffffffffff16ff5b6103d06109a4565b600080815481106103dd57fe5b90600052602060002090600602016040518060c0016040529081600082018054600181600116156101000203166002900480601f01602080910402602001604051908101604052809291908181526020018280546001816001161561010002031660029004801561048f5780601f106104645761010080835404028352916020019161048f565b820191906000526020600020905b81548152906001019060200180831161047257829003601f168201915b50505050508152602001600182018054600181600116156101000203166002900480601f0160208091040260200160405190810160405280929190818152602001828054600181600116156101000203166002900480156105315780601f1061050657610100808354040283529160200191610531565b820191906000526020600020905b81548152906001019060200180831161051457829003601f168201915b5050505050815260200160028201548152602001600382018054600181600116156101000203166002900480601f0160208091040260200160405190810160405280929190818152602001828054600181600116156101000203166002900480156105dd5780601f106105b2576101008083540402835291602001916105dd565b820191906000526020600020905b8154815290600101906020018083116105c057829003601f168201915b5050505050815260200160048201548152602001600582015481525050905090565b3373ffffffffffffffffffffffffffffffffffffffff16600160009054906101000a900473ffffffffffffffffffffffffffffffffffffffff1673ffffffffffffffffffffffffffffffffffffffff161461065957600080fd5b6106616109a4565b6000808154811061066e57fe5b90600052602060002090600602016040518060c0016040529081600082018054600181600116156101000203166002900480601f0160208091040260200160405190810160405280929190818152602001828054600181600116156101000203166002900480156107205780601f106106f557610100808354040283529160200191610720565b820191906000526020600020905b81548152906001019060200180831161070357829003601f168201915b50505050508152602001600182018054600181600116156101000203166002900480601f0160208091040260200160405190810160405280929190818152602001828054600181600116156101000203166002900480156107c25780601f10610797576101008083540402835291602001916107c2565b820191906000526020600020905b8154815290600101906020018083116107a557829003601f168201915b5050505050815260200160028201548152602001600382018054600181600116156101000203166002900480601f01602080910402602001604051908101604052809291908181526020018280546001816001161561010002031660029004801561086e5780601f106108435761010080835404028352916020019161086e565b820191906000526020600020905b81548152906001019060200180831161085157829003601f168201915b505050505081526020016004820154815260200160058201548152505090508681600001819052508581602001819052508481604001818152505083816060018190525082816080018181525050818160a001818152505080600080815481106108d457fe5b906000526020600020906006020160008201518160000190805190602001906108fe9291906109da565b50602082015181600101908051906020019061091b9291906109da565b506040820151816002015560608201518160030190805190602001906109429291906109da565b506080820151816004015560a082015181600501559050507f448eca63bc8c100a06da43a43f72abb50b18750ff91c685f41bf67bae1de3ab887878787878760405161099396959493929190610d6c565b60405180910390a150505050505050565b6040518060c001604052806060815260200160608152602001600081526020016060815260200160008152602001600081525090565b828054600181600116156101000203166002900490600052602060002090601f016020900481019282601f10610a1b57805160ff1916838001178555610a49565b82800160010185558215610a49579182015b82811115610a48578251825591602001919060010190610a2d565b5b509050610a569190610a5a565b5090565b610a7c91905b80821115610a78576000816000905550600101610a60565b5090565b90565b600082601f830112610a9057600080fd5b8135610aa3610a9e82610ea7565b610e7a565b91508082526020830160208301858383011115610abf57600080fd5b610aca838284610f47565b50505092915050565b600081359050610ae281610f9a565b92915050565b60008060008060008060c08789031215610b0157600080fd5b600087013567ffffffffffffffff811115610b1b57600080fd5b610b2789828a01610a7f565b965050602087013567ffffffffffffffff811115610b4457600080fd5b610b5089828a01610a7f565b9550506040610b6189828a01610ad3565b945050606087013567ffffffffffffffff811115610b7e57600080fd5b610b8a89828a01610a7f565b9350506080610b9b89828a01610ad3565b92505060a0610bac89828a01610ad3565b9150509295509295509295565b600060208284031215610bcb57600080fd5b6000610bd984828501610ad3565b91505092915050565b610beb81610f0b565b82525050565b6000610bfc82610ede565b610c068185610efa565b9350610c16818560208601610f56565b610c1f81610f89565b840191505092915050565b6000610c3582610ed3565b610c3f8185610ee9565b9350610c4f818560208601610f56565b610c5881610f89565b840191505092915050565b6000610c6e82610ed3565b610c788185610efa565b9350610c88818560208601610f56565b610c9181610f89565b840191505092915050565b600060c0830160008301518482036000860152610cb98282610c2a565b91505060208301518482036020860152610cd38282610c2a565b9150506040830151610ce86040860182610d33565b5060608301518482036060860152610d008282610c2a565b9150506080830151610d156080860182610d33565b5060a0830151610d2860a0860182610d33565b508091505092915050565b610d3c81610f3d565b82525050565b610d4b81610f3d565b82525050565b6000602082019050610d666000830184610be2565b92915050565b600060c0820190508181036000830152610d868189610bf1565b90508181036020830152610d9a8188610bf1565b9050610da96040830187610d42565b8181036060830152610dbb8186610bf1565b9050610dca6080830185610d42565b610dd760a0830184610d42565b979650505050505050565b600060c0820190508181036000830152610dfc8189610c63565b90508181036020830152610e108188610c63565b9050610e1f6040830187610d42565b8181036060830152610e318186610c63565b9050610e406080830185610d42565b610e4d60a0830184610d42565b979650505050505050565b60006020820190508181036000830152610e728184610c9c565b905092915050565b6000604051905081810181811067ffffffffffffffff82111715610e9d57600080fd5b8060405250919050565b600067ffffffffffffffff821115610ebe57600080fd5b601f19601f8301169050602081019050919050565b600081519050919050565b600081519050919050565b600082825260208201905092915050565b600082825260208201905092915050565b6000610f1682610f1d565b9050919050565b600073ffffffffffffffffffffffffffffffffffffffff82169050919050565b6000819050919050565b82818337600083830152505050565b60005b83811015610f74578082015181840152602081019050610f59565b83811115610f83576000848401525b50505050565b6000601f19601f8301169050919050565b610fa381610f3d565b8114610fae57600080fd5b5056fea365627a7a72315820e4be9f2377658d638005950c9db41e9f975dfd06d3f613a7896f73896999a3026c6578706572696d656e74616cf564736f6c634300050b0040",
  "deployedBytecode": "0x60806040523480156200001157600080fd5b506040516200135c3803806200135c83398181016040526200003791908101906200027e565b33600160006101000a81548173ffffffffffffffffffffffffffffffffffffffff021916908373ffffffffffffffffffffffffffffffffffffffff16021790555060006040518060c0016040528088815260200187815260200186815260200185815260200184815260200183815250908060018154018082558091505090600182039060005260206000209060060201600090919290919091506000820151816000019080519060200190620000f09291906200015c565b5060208201518160010190805190602001906200010f9291906200015c565b50604082015181600201556060820151816003019080519060200190620001389291906200015c565b506080820151816004015560a0820151816005015550505050505050505062000414565b828054600181600116156101000203166002900490600052602060002090601f016020900481019282601f106200019f57805160ff1916838001178555620001d0565b82800160010185558215620001d0579182015b82811115620001cf578251825591602001919060010190620001b2565b5b509050620001df9190620001e3565b5090565b6200020891905b8082111562000204576000816000905550600101620001ea565b5090565b90565b600082601f8301126200021d57600080fd5b8151620002346200022e826200038d565b6200035f565b915080825260208301602083018583830111156200025157600080fd5b6200025e838284620003c4565b50505092915050565b6000815190506200027881620003fa565b92915050565b60008060008060008060c087890312156200029857600080fd5b600087015167ffffffffffffffff811115620002b357600080fd5b620002c189828a016200020b565b965050602087015167ffffffffffffffff811115620002df57600080fd5b620002ed89828a016200020b565b95505060406200030089828a0162000267565b945050606087015167ffffffffffffffff8111156200031e57600080fd5b6200032c89828a016200020b565b93505060806200033f89828a0162000267565b92505060a06200035289828a0162000267565b9150509295509295509295565b6000604051905081810181811067ffffffffffffffff821117156200038357600080fd5b8060405250919050565b600067ffffffffffffffff821115620003a557600080fd5b601f19601f8301169050602081019050919050565b6000819050919050565b60005b83811015620003e4578082015181840152602081019050620003c7565b83811115620003f4576000848401525b50505050565b6200040581620003ba565b81146200041157600080fd5b50565b610f3880620004246000396000f3fe60806040526004361061003f5760003560e01c8063898e6219146100445780638b532f3914610086578063c412eaba14610090578063e08baa06146100bb575b600080fd5b34801561005057600080fd5b5061006b60048036036100669190810190610b59565b6100e4565b60405161007d96959493929190610d58565b60405180910390f35b61008e6102f5565b005b34801561009c57600080fd5b506100a5610368565b6040516100b29190610dce565b60405180910390f35b3480156100c757600080fd5b506100e260048036036100dd9190810190610a88565b61059f565b005b600081815481106100f157fe5b9060005260206000209060060201600091509050806000018054600181600116156101000203166002900480601f01602080910402602001604051908101604052809291908181526020018280546001816001161561010002031660029004801561019d5780601f106101725761010080835404028352916020019161019d565b820191906000526020600020905b81548152906001019060200180831161018057829003601f168201915b505050505090806001018054600181600116156101000203166002900480601f01602080910402602001604051908101604052809291908181526020018280546001816001161561010002031660029004801561023b5780601f106102105761010080835404028352916020019161023b565b820191906000526020600020905b81548152906001019060200180831161021e57829003601f168201915b505050505090806002015490806003018054600181600116156101000203166002900480601f0160208091040260200160405190810160405280929190818152602001828054600181600116156101000203166002900480156102df5780601f106102b4576101008083540402835291602001916102df565b820191906000526020600020905b8154815290600101906020018083116102c257829003601f168201915b5050505050908060040154908060050154905086565b3373ffffffffffffffffffffffffffffffffffffffff16600160009054906101000a900473ffffffffffffffffffffffffffffffffffffffff1673ffffffffffffffffffffffffffffffffffffffff161461034f57600080fd5b3373ffffffffffffffffffffffffffffffffffffffff16ff5b610370610944565b6000808154811061037d57fe5b90600052602060002090600602016040518060c0016040529081600082018054600181600116156101000203166002900480601f01602080910402602001604051908101604052809291908181526020018280546001816001161561010002031660029004801561042f5780601f106104045761010080835404028352916020019161042f565b820191906000526020600020905b81548152906001019060200180831161041257829003601f168201915b50505050508152602001600182018054600181600116156101000203166002900480601f0160208091040260200160405190810160405280929190818152602001828054600181600116156101000203166002900480156104d15780601f106104a6576101008083540402835291602001916104d1565b820191906000526020600020905b8154815290600101906020018083116104b457829003601f168201915b5050505050815260200160028201548152602001600382018054600181600116156101000203166002900480601f01602080910402602001604051908101604052809291908181526020018280546001816001161561010002031660029004801561057d5780601f106105525761010080835404028352916020019161057d565b820191906000526020600020905b81548152906001019060200180831161056057829003601f168201915b5050505050815260200160048201548152602001600582015481525050905090565b3373ffffffffffffffffffffffffffffffffffffffff16600160009054906101000a900473ffffffffffffffffffffffffffffffffffffffff1673ffffffffffffffffffffffffffffffffffffffff16146105f957600080fd5b610601610944565b6000808154811061060e57fe5b90600052602060002090600602016040518060c0016040529081600082018054600181600116156101000203166002900480601f0160208091040260200160405190810160405280929190818152602001828054600181600116156101000203166002900480156106c05780601f10610695576101008083540402835291602001916106c0565b820191906000526020600020905b8154815290600101906020018083116106a357829003601f168201915b50505050508152602001600182018054600181600116156101000203166002900480601f0160208091040260200160405190810160405280929190818152602001828054600181600116156101000203166002900480156107625780601f1061073757610100808354040283529160200191610762565b820191906000526020600020905b81548152906001019060200180831161074557829003601f168201915b5050505050815260200160028201548152602001600382018054600181600116156101000203166002900480601f01602080910402602001604051908101604052809291908181526020018280546001816001161561010002031660029004801561080e5780601f106107e35761010080835404028352916020019161080e565b820191906000526020600020905b8154815290600101906020018083116107f157829003601f168201915b505050505081526020016004820154815260200160058201548152505090508681600001819052508581602001819052508481604001818152505083816060018190525082816080018181525050818160a0018181525050806000808154811061087457fe5b9060005260206000209060060201600082015181600001908051906020019061089e92919061097a565b5060208201518160010190805190602001906108bb92919061097a565b506040820151816002015560608201518160030190805190602001906108e292919061097a565b506080820151816004015560a082015181600501559050507f448eca63bc8c100a06da43a43f72abb50b18750ff91c685f41bf67bae1de3ab887878787878760405161093396959493929190610ce2565b60405180910390a150505050505050565b6040518060c001604052806060815260200160608152602001600081526020016060815260200160008152602001600081525090565b828054600181600116156101000203166002900490600052602060002090601f016020900481019282601f106109bb57805160ff19168380011785556109e9565b828001600101855582156109e9579182015b828111156109e85782518255916020019190600101906109cd565b5b5090506109f691906109fa565b5090565b610a1c91905b80821115610a18576000816000905550600101610a00565b5090565b90565b600082601f830112610a3057600080fd5b8135610a43610a3e82610e1d565b610df0565b91508082526020830160208301858383011115610a5f57600080fd5b610a6a838284610e8b565b50505092915050565b600081359050610a8281610ede565b92915050565b60008060008060008060c08789031215610aa157600080fd5b600087013567ffffffffffffffff811115610abb57600080fd5b610ac789828a01610a1f565b965050602087013567ffffffffffffffff811115610ae457600080fd5b610af089828a01610a1f565b9550506040610b0189828a01610a73565b945050606087013567ffffffffffffffff811115610b1e57600080fd5b610b2a89828a01610a1f565b9350506080610b3b89828a01610a73565b92505060a0610b4c89828a01610a73565b9150509295509295509295565b600060208284031215610b6b57600080fd5b6000610b7984828501610a73565b91505092915050565b6000610b8d82610e54565b610b978185610e70565b9350610ba7818560208601610e9a565b610bb081610ecd565b840191505092915050565b6000610bc682610e49565b610bd08185610e5f565b9350610be0818560208601610e9a565b610be981610ecd565b840191505092915050565b6000610bff82610e49565b610c098185610e70565b9350610c19818560208601610e9a565b610c2281610ecd565b840191505092915050565b600060c0830160008301518482036000860152610c4a8282610bbb565b91505060208301518482036020860152610c648282610bbb565b9150506040830151610c796040860182610cc4565b5060608301518482036060860152610c918282610bbb565b9150506080830151610ca66080860182610cc4565b5060a0830151610cb960a0860182610cc4565b508091505092915050565b610ccd81610e81565b82525050565b610cdc81610e81565b82525050565b600060c0820190508181036000830152610cfc8189610b82565b90508181036020830152610d108188610b82565b9050610d1f6040830187610cd3565b8181036060830152610d318186610b82565b9050610d406080830185610cd3565b610d4d60a0830184610cd3565b979650505050505050565b600060c0820190508181036000830152610d728189610bf4565b90508181036020830152610d868188610bf4565b9050610d956040830187610cd3565b8181036060830152610da78186610bf4565b9050610db66080830185610cd3565b610dc360a0830184610cd3565b979650505050505050565b60006020820190508181036000830152610de88184610c2d565b905092915050565b6000604051905081810181811067ffffffffffffffff82111715610e1357600080fd5b8060405250919050565b600067ffffffffffffffff821115610e3457600080fd5b601f19601f8301169050602081019050919050565b600081519050919050565b600081519050919050565b600082825260208201905092915050565b600082825260208201905092915050565b6000819050919050565b82818337600083830152505050565b60005b83811015610eb8578082015181840152602081019050610e9d565b83811115610ec7576000848401525b50505050565b6000601f19601f8301169050919050565b610ee781610e81565b8114610ef257600080fd5b5056fea365627a7a7231582083e5a21619dfca5092448a97a7b62aef67b0af23fca7db38508bf1444b580aa56c6578706572696d656e74616cf564736f6c634300050b0040",
  "source": "pragma solidity ^0.5.0;\npragma experimental ABIEncoderV2;\n\ncontract ItemDetail {\n    \n    address constant temporaryPurchaser = address(0);\n    Item[] public item;\n    address internal itemOwner;\n    \n    struct Item {\n        string itemName;\n        string itemPhoto;\n        uint256 price;\n        string itemDetailText; \n        uint category;\n        uint subCategory;\n        uint itemCondition;\n     } \n     \n    event EditItem(string _itemName, string _itemPhoto, uint256 _price, string _itemDetailText, uint _category, uint _subCategory, uint _itemCondition);\n    \n    constructor(string memory _itemName, string memory _itemPhoto, uint256 _price, string memory _itemDetailText,  uint _category,  uint _subCategory,  uint _itemCondition) public {\n        itemOwner = msg.sender;\n        item.push(Item(_itemName, _itemPhoto, _price, _itemDetailText, _category, _subCategory, _itemCondition));\n    }\n    \n    \n    function getItem() public view returns(Item memory) {\n        return item[0];\n    }\n    \n    function editItem(string memory _itemName, string memory _itemPhoto, uint256 _price, string memory _itemDetailText,  uint _category,  uint _subCategory,  uint _itemCondition) public {\n        require(itemOwner == msg.sender);\n        Item memory _item = item[0];\n        _item.itemName = _itemName;\n        _item.itemPhoto = _itemPhoto;\n        _item.price = _price;\n        _item.itemDetailText = _itemDetailText;\n        _item.category = _category;\n        _item.subCategory = _subCategory;\n        _item.itemCondition = _itemCondition;\n        item[0] = _item;\n        emit EditItem(_itemName, _itemPhoto, _price, _itemDetailText, _category, _subCategory,  _itemCondition);\n    }\n\n    function deleteItem(address _itemDetailAddress) public payable {\n        require(itemOwner == msg.sender);\n        selfdestruct(msg.sender);\n    }\n    \n    \n}",
  "sourcePath": "/Users/yosuke.aramaki/Desktop/proto/fLibra/truffle/contracts/ItemDetail.sol",
  "compiler": {
    "name": "solc",
    "version": "0.5.7+commit.6da8b019.Darwin.appleclang"
  },
  "schemaVersion": "3.0.2",
  "updatedAt": "2019-11-19T08:56:46.655Z",
  "devdoc": {
    "methods": {}
  },
  "userdoc": {
    "methods": {}
  }
}